:02000000442892
:100008007E1480312100101C42282000101C422838
:1000180010101A08F2001908F100111C1728FF30F7
:10002800F100FF30F200063072020E30031971023F
:10003800031C42281B1099019A0111100B1826283D
:100048000B14412879307202193003197102031C0C
:100058003C2822000C114E30F000EB30890B32287E
:10006800F00B322800003E00911522000C153F28A5
:1000780008303E0091060B1020001B147E1009006A
:1000880045287E102000482832001F08F03905381E
:100098009F0023000C1021000C1008303D00900038
:1000A80023008C1021008C1009303D0091002300A2
:1000B8000C1122000C1121000C1124008C150330A6
:1000C8003C00900023000C1224000C1621000C1692
:1000D80004303C00A80023008C1222008C1621005A
:1000E8008C1204303D00950029009E0101309F00CC
:1000F800003098000030990000309A0000309B00D2
:1001080000309C0008309D009E172D009101093099
:100118009200843095000E303E00910092019301C8
:100128009401950196019701023098009901873052
:10013800900020008C19A2283E00911120008C1DEF
:10014800A228C0309B001B101010210010148B1720
:100158004E30F300EB30890BAF28F30BAF280000CB
:1001680022000C150830F4009D30F3000630890B8E
:10017800BB28F30BBB28F40BBB283E00111411104D
:02018800B62897
:020000040001F9
:08000000FF3FFF3FFF3FFF3F00
:08000E008C3F323FFF1FFF3F52
:00000001FF
